S01700004C6162335F4469676974616C325F312E73726563EC
S11300000C9434000C9446000C9446000C94460066
S11300100C9446000C9446000C9446000C94460044
S11300200C9446000C9446000C9446000C94460034
S11300300C9446000C9446000C9446000C94460024
S11300400C9446000C9446000C94E5000C94460075
S11300500C9446000C946E000C9446000C944600DC
S11300600C9446000C94460011241FBECFEFD8E038
S1130070DEBFCDBF21E0A0E0B1E001C01D92A530FC
S1130080B207E1F70E94A0000C94F8000C94000061
S1130090ECE7F0E0108280818064808380818F7738
S11300A08083808180628083EAE7F0E0108280812F
S11300B0876080838081886080838081806880837A
S11300C00895ECE7F0E09081987F8770892B808316
S11300D0EAE7F0E080818064808308951F920F92A4
S11300E00FB60F9211242F933F934F935F936F9307
S11300F07F938F939F93AF93BF93EF93FF938091DD
S11301000001811106C08091790080930201109250
S11301100001809100010E946100FF91EF91BF9165
S1130120AF919F918F917F916F915F914F913F918B
S11301302F910F900FBE0F901F9018958BB90895B3
S113014080E40E94C3000E94480080E00E94610095
S11301508FEF8AB91BB878940E94E000813029F4AB
S1130160809102010E94DB00F7CF823029F4809154
S113017001010E94DB00F0CF833071F70E94E000A0
S11301800E949E00E9CF803549F484B18C6284B921
S113019084B18F7E84B982E58CBD089584B1806179
S11301A084B984B1837D84B91CBC80E48CBD8CB5D6
S11301B08F7D8CBD08958EBD0DB407FEFDCF0895CF
S11301C00DB407FEFDCF8EB508951F920F920FB6A2
S11301D00F9211248F938091C6008093040181E0D3
S11301E0809303018F910F900FBE0F901F9018956D
S10701F0F894FFCFAD
S9030000FC
